:020000040800F2
:10000000002000208D0F00087D09000885090008E8
:1000100000000000000000000000000000000000E0
:100020000000000000000000000000008D09000832
:10003000000000000000000097090008A109000866
:10004000DD0F000800000000DD0F0008DD0F0008D4
:10005000DD0F0008DD0F0008DD0F0008DD0F0008D0
:1000600000000000DD0F0008DD0F0008B1090008E6
:10007000DD0F0008DD0F0008DD0F000800000000A4
:10008000DD0F0008DD0F000800000000DD0F000894
:10009000DD0F0008DD0F0008DD0F0008DD0F000890
:1000A000DD0F0008DD0F0008DD0F0008DD0F000880
:1000B000D50900080000000000000000000000005A
:1000C00010B5064C2378002B07D1054B002B02D02E
:1000D000044800E000BF0123237010BD140000207D
:1000E00000000000DC400008044B10B5002B03D0DA
:1000F0000349044800E000BF10BDC04600000000F6
:1001000018000020DC400008002243088B4274D312
:1001100003098B425FD3030A8B4244D3030B8B4208
:1001200028D3030C8B420DD3FF22090212BA030C11
:100130008B4202D31212090265D0030B8B4219D3F2
:1001400000E0090AC30B8B4201D3CB03C01A524112
:10015000830B8B4201D38B03C01A5241430B8B425A
:1001600001D34B03C01A5241030B8B4201D30B0343
:10017000C01A5241C30A8B4201D3CB02C01A52416A
:10018000830A8B4201D38B02C01A5241430A8B422D
:1001900001D34B02C01A5241030A8B4201D30B0216
:1001A000C01A5241CDD2C3098B4201D3CB01C01A30
:1001B000524183098B4201D38B01C01A524143093A
:1001C0008B4201D34B01C01A524103098B4201D328
:1001D0000B01C01A5241C3088B4201D3CB00C01A95
:1001E000524183088B4201D38B00C01A524143080D
:1001F0008B4201D34B00C01A5241411A00D2014632
:10020000524110467047FFE701B5002000F006F8A4
:1002100002BDC0460029F7D076E770477047C04658
:1002200080B500AF114B0021180002F07DF80F4B94
:100230000421180002F078F80C4B0821180002F095
:1002400073F80B4B0021180002F06EF8084B0421E4
:10025000180002F069F8064B0821180002F064F853
:1002600000F008F8C046BD4680BDC04644060020E8
:100270008C06002080B582B000AF96237B60104BC7
:100280001B687A685A630E4B1B687A689A630C4B3A
:100290001B687A68DA630B4B1B687A685A63094BF0
:1002A0001B687A689A63074B1B687A68DA63FA23DB
:1002B0001B01180000F0F8FEC046BD4602B080BD2C
:1002C000440600208C06002080B582B000AF786024
:1002D0007B6802331A78124B1B685A637B680133C0
:1002E0001A780F4B1B689A637B681A780C4B1B6853
:1002F000DA637B6805331A780A4B1B685A637B689C
:1003000004331A78074B1B689A637B6803331A78A7
:10031000044B1B68DA63C046BD4602B080BDC046D0
:10032000440600208C06002080B500AF104B1B88CF
:100330009AB2104B1B889BB29A4208D30C4B1B8875
:100340009AB20C4B1B889BB2D31A9BB20CE0084BA1
:100350001B889AB2074B1B889BB2D31A9BB2802290
:10036000D200944663449BB21800BD4680BDC0468F
:10037000300600203206002080B500AFFFF7D4FF22
:1003800003001A00024B9B1A9BB21800BD4680BDA9
:10039000FF03000080B584B000AF78600A00BB1C8A
:1003A0001A80FFF7E9FF03001A00BB1C1B88934269
:1003B00005D91A4B1B685A1C184B1A602BE00E23E8
:1003C000FB1800221A801FE00E23FB181B887A6896
:1003D000D218134B1B889BB2591C88B21049088055
:1003E000190012780F4B5A540D4B1B889AB2802378
:1003F000DB009A4202D10A4B00221A800E217B18A0
:100400001A887B1801321A800E23FA18BB1C128836
:100410001B889A42D8D3BD4604B080BD3806002060
:10042000300600203002002080B584B000AF786034
:100430000A00BB1C1A800F23FB1800221A700C2321
:10044000FB1800221A8039E00C23FB181B887A68FD
:10045000D31819780F22BB18BA1812784A401A70AC
:100460000B23FB1800221A701DE00F22BB181B780B
:100470005BB2002B09DABB181B785BB2DB185BB2EE
:10048000072253405BB2DBB204E00F23FB181B785A
:10049000DB18DBB20F22BA1813700B217B181A7805
:1004A0007B1801321A700B23FB181B78072BDCD941
:1004B0000C217B181A887B1801321A800C23FA1839
:1004C000BB1C12881B889A42BED30F23FB181B78D3
:1004D0001800BD4604B080BDF0B587B000AF7860AD
:1004E00013257B197A68127A1A707B6802331226F8
:1004F000BC1906211800FFF797FF030023707A1933
:10050000BB1912781B789A4205D01A4B1B685A1CEB
:10051000184B1A602BE07B680233FB6000237B6181
:100520001DE07B69FA68D2180B217B1812781A70CB
:100530007B181B78632B0AD97B181B78C82B06D82D
:100540000D4A7B69D3187A1812781A7004E00B4BA5
:100550001B685A1C094B1A607B6901337B617B69FC
:10056000052BDEDD064B1B685A1C054B1A60BD4689
:1005700007B0F0BD38060020000000204006002033
:100580003406002080B586B000AF5FE01223FB1870
:10059000334A12881A80324B1B889BB20133314A8E
:1005A000134003D5013B304A134301331A00102195
:1005B0007B181A801223FB181B882C4AD35CFF2B54
:1005C00005D17B181B88294AD35CFD2B0ED0244B08
:1005D0001B889BB20133234A134003D5013B224AB7
:1005E000134301339AB21E4B1A802FE000237B6124
:1005F00017E01B4B1B889BB21A007B69D318194A62
:10060000134003D5013B184A134301331A00174B1B
:10061000995C3A1D7B69D3180A1C1A707B690133F7
:100620007B617B69082BE4DD3B1D1800FFF754FF5D
:100630000B4B1B889BB209330A4A134003D5013B7D
:10064000094A134301339AB2054B1A80FFF76CFE37
:100650000300082B9AD8C046C046BD4606B080BDF0
:1006600032060020FF03008000FCFFFF3002002064
:1006700080B500AF80239A00134B0021180003F0CF
:1006800000FD0021114B0A1C1A80114B0A1C1A8014
:10069000104B00221A60104B00221A600F4B0022F0
:1006A0001A6080239A0008490D4B180003F081FC62
:1006B0000C4B1B681A680B4B1B6804218A431A6099
:1006C000C046BD4680BDC046300000203206002036
:1006D0003006002034060020380600203C060020AA
:1006E000D40600205C07002080B582B000AF78609F
:1006F0000A00BB1C1A807B681B680C4A934210D10D
:10070000BB1C1A880A4B1B68D218094B1A60BB1C09
:100710001A88084B11001800FFF73CFEFFF732FF64
:1007200000E0C046BD4602B080BDC0460044004067
:100730003C0600203000002080B584B000AF786017
:100740007B681B681A4A93422ED17B68180002F01E
:10075000BBFE0300FB60FB680822134010D0154B62
:100760001B685A1C134B1A607B681B6808221A62AC
:100770007B681B689B8C9BB2DAB20B23FB181A7048
:10078000FB680722134008D00A4B1B685A1C094B10
:100790001A607B681B6807221A627B68180002F0E7
:1007A00023FBFFF765FF00E0C046BD4604B080BDF7
:1007B000004400403806002080B582B000AF0C4BEA
:1007C0005A690B4B01210A435A61094B5B690122AB
:1007D00013407B607B68002200210B2000F034FD79
:1007E0000B2000F046FDC046BD4602B080BDC046AD
:1007F0000010024080B584B000AF174B5A69164B09
:100800008021C9030A435A61134B5A698023DB03D1
:100810001340FB60FB68104B5A690F4B8021890223
:100820000A435A610C4B5A6980239B021340BB60F8
:10083000BB68094B5A69084B8021C9020A435A61B7
:10084000054B5A698023DB0213407B607B68C046FE
:10085000BD4604B080BDC0460010024080B500AF68
:1008600000F0BEFB00F016F8FFF7C4FFFFF7A4FF8F
:1008700000F0C2F800F070F900F0AEFAFFF7F8FEF1
:10088000FFF7CEFC024B1800FFF71EFDFAE7C0464B
:100890000000002090B591B000AF10243B19180063
:1008A00030231A00002103F0ECFB3B00180010235A
:1008B0001A00002103F0E5FB21007B1802221A60D8
:1008C0007B180122DA607B1810221A617B18022241
:1008D0001A627B1800225A627B18A02292039A6245
:1008E0007B180022DA627B18180001F06FF8031EF3
:1008F00001D000F019F83B0007221A603B000222E9
:100900005A603B0000229A603B000022DA603B0004
:100910000121180001F074FB031E01D000F004F85F
:10092000C046BD4611B090BD80B500AF72B6C0469E
:10093000C046FDE780B582B000AF0F4B9A690E4B01
:1009400001210A439A610C4B9B69012213407B6091
:100950007B68094BDA69084B802149050A43DA6153
:10096000054BDA6980235B0513403B603B68C0465A
:10097000BD4602B080BDC0460010024080B500AF49
:10098000C046FDE780B500AFC046FDE780B500AFCB
:10099000C046BD4680BD80B500AFC046BD4680BDE7
:1009A00080B500AF00F064FBC046BD4680BD0000CE
:1009B00080B500AF054B180000F0A3FD044B1800F4
:1009C00000F09FFDC046BD4680BDC046A007002088
:1009D0005C07002080B500AF034B180002F094FACA
:1009E000C046BD4680BDC046D406002080B500AFDD
:1009F000C046BD4680BD000080B592B000AF402328
:100A0000FB18180008231A00002103F03AFB2423E6
:100A1000FB1818001C231A00002103F032FB3B1DB9
:100A2000180020231A00002103F02BFB474B484AF3
:100A30001A60464BE022FF325A60444B00229A6013
:100A4000424B444ADA60414B00221A613F4B00227C
:100A50005A613E4B00229A613C4B180001F014FC95
:100A6000031E01D0FFF760FF40217B1800221A60AF
:100A70007B1800225A607A18344B1100180002F0DB
:100A8000A9F8031E01D0FFF74FFF24217B18602235
:100A90001A607B1896225A607B1800229A607B1895
:100AA0000022DA607B1800221A617B1800225A614A
:100AB0007B1800229A617918244B0022180001F05B
:100AC0002DFD031E01D0FFF72FFF2423F9181F4B24
:100AD0000422180001F022FD031E01D0FFF724FFBD
:100AE00024217B1800225A607918184B082218001C
:100AF00001F014FD031E01D0FFF716FF3B1D00227D
:100B00001A603B1D00225A603B1D00229A603B1D6B
:100B10000022DA603B1D00221A613B1D80229201F7
:100B20005A613B1D0022DA613A1D084B1100180082
:100B300002F0A8F8031E01D0FFF7F6FE034B1800E1
:100B400000F0B8F8C046BD4612B080BD4406002093
:100B5000002C0140CF07000080B58AB000AF2023F1
:100B6000FB18180008231A00002103F08AFA3B1D25
:100B700018001C231A00002103F083FA304B314A7D
:100B80001A602F4BE022FF325A602D4B00229A60F0
:100B90002B4B2D4ADA602A4B00221A61284B002287
:100BA0009A61274B180001F06FFB031E01D0FFF77D
:100BB000BBFE20217B1800221A607B1800225A609D
:100BC0007A181F4B1100180002F004F8031E01D020
:100BD000FFF7AAFE3B1D60221A603B1D00225A60EF
:100BE0003B1D00229A603B1D00221A61391D144BE7
:100BF0000022180001F092FC031E01D0FFF794FEC2
:100C00003B1D96225A60391D0D4B0422180001F03D
:100C100085FC031E01D0FFF787FE391D084B082213
:100C2000180001F07BFC031E01D0FFF77DFE044B92
:100C3000180000F03FF8C046BD460AB080BDC0466F
:100C40008C06002000040040CF07000080B584B06F
:100C500000AF78607B681B68134A93420ED1134B38
:100C60009A69124B802109010A439A610F4B9A69D4
:100C700080231B011340FB60FB6810E07B681B684E
:100C80000B4A93420BD1094BDA69084B02210A4304
:100C9000DA61064BDB6902221340BB60BB68C046C9
:100CA000BD4604B080BDC046002C0140001002408B
:100CB0000004004090B58BB000AF786014243B195D
:100CC000180014231A00002103F0DBF97B681B686D
:100CD0003D4A934226D13D4B5A693C4B80218902C3
:100CE0000A435A61394B5A6980239B0213403B6186
:100CF0003B693B19E022D2001A6021007B180222D6
:100D00005A607B1800229A607B180022DA607B18F8
:100D100002221A617A189023DB051100180000F0F6
:100D2000E5FC4DE07B681B68294A934248D1274B7C
:100D30005A69264B802189020A435A61234B5A691A
:100D400080239B021340FB60FB68204B5A691F4BBA
:100D50008021C9020A435A611C4B5A698023DB0275
:100D60001340BB60BB6814243B19C0221A603B19B6
:100D700002225A603B1900229A603B190022DA6075
:100D80003B1901221A613A199023DB051100180062
:100D900000F0ACFC21007B1801221A607B180222B3
:100DA0005A607B1800229A607B180022DA607B1858
:100DB00001221A617B18074A1900100000F096FC06
:100DC000C046BD460BB090BD002C01400010024053
:100DD000000400400004004880B500AF144B154AE1
:100DE0001A60134BE12252025A60114B00229A60A2
:100DF0000F4B0022DA600E4B00221A610C4B0C22C2
:100E00005A610B4B00229A61094B0022DA61084BB0
:100E100000221A62064B00225A62054B180001F0AC
:100E20008FFF031E01D0FFF77FFDC046BD4680BD8A
:100E3000D40600200044004090B58BB000AF78602D
:100E400014243B19180014231A00002103F019F987
:100E50007B681B68474A934200D086E0464BDA69BC
:100E6000454B802189020A43DA61434BDA698023CA
:100E70009B0213403B613B693F4B5A693E4B8021CB
:100E800089020A435A613C4B5A6980239B021340F2
:100E9000FB60FB6821007B180C221A607B18022281
:100EA0005A607B1800229A607B180322DA607B1854
:100EB00001221A617A189023DB051100180000F056
:100EC00015FC2E4B2E4A1A602C4B00225A602B4BDD
:100ED00000229A60294B8022DA60284B00221A6196
:100EE000264B00225A61254B20229A61234B002277
:100EF000DA61224B180000F0D9F9031E01D0FFF788
:100F000013FD7B681D4A5A671C4B7A685A621D4B59
:100F10001D4A1A601B4B10225A601A4B00229A601D
:100F2000184B8022DA60174B00221A61154B002201
:100F30005A61144B00229A61124B0022DA61114B64
:100F4000180000F0B3F9031E01D0FFF7EDFC7B6839
:100F50000C4A1A670B4B7A685A62002200211C2047
:100F600000F072F91C2000F084F9C046BD460BB0B9
:100F700090BDC04600440040001002405C070020C5
:100F800058000240A0070020440002400D4885465A
:100F9000FFF72CFD0C480D490D4A002302E0D45800
:100FA000C4500433C4188C42F9D30A4A0A4C0023B3
:100FB00001E013600432A242FBD303F06BF8FFF7A9
:100FC0004DFCFEE70020002000000020140000205F
:100FD0003441000814000020E8070020FEE700006C
:100FE00080B500AF074B1A68064B10210A431A6000
:100FF000032000F009F8FFF79DFC00231800BD4610
:1010000080BDC0460020024090B583B000AF78603C
:10101000144B1C68144B1B781900FA239800FFF737
:1010200073F8030019002000FFF76EF803001800A2
:1010300000F02FF9031E01D001230FE07B68032B82
:101040000BD8796801235B420022180000F0FCF8FD
:10105000064B7A681A60002300E001231800BD46A1
:1010600003B090BD08000020100000200C000020FC
:1010700080B500AF054B1B781A00054B1B68D218D2
:10108000034B1A60C046BD4680BDC046100000201C
:10109000E407002080B500AF024B1B681800BD4676
:1010A00080BDC046E407002080B584B000AF786002
:1010B000FFF7F0FF0300BB607B68FB60FB68013358
:1010C00005D00A4B1B781A00FB689B18FB60C046D2
:1010D000FFF7E0FF0200BB68D31AFA689A42F7D81C
:1010E000C046C046BD4604B080BDC04610000020CA
:1010F00080B582B000AF0200FB1D1A70FB1D1B788B
:101100007F2B09D8FB1D1B781A001F231A40044BA4
:10111000012191400A001A60C046BD4602B080BD60
:1011200000E100E090B583B000AF02003960FB1D24
:101130001A70FB1D1B787F2B28D82F4AFB1D1B78AC
:101140005BB29B08C0339B009B58FA1D12781100BC
:1011500003220A40D200FF2191400A00D2431A40E4
:1011600011003B689B01FF221A40FB1D1B781800F1
:1011700003230340DB009A401F48FB1D1B785BB232
:101180009B080A43C0339B001A5031E01B4AFB1DE9
:101190001B7819000F230B40083B9B0806339B006C
:1011A000D31804331B68FA1D1278110003220A4079
:1011B000D200FF2191400A00D2431A4011003B683F
:1011C0009B01FF221A40FB1D1B78180003230340DC
:1011D000DB009A400948FB1D1B781C000F232340AD
:1011E000083B9B080A4306339B00C31804331A606C
:1011F000C046BD4603B090BD00E100E000ED00E058
:1012000080B582B000AF78607B685A1E80235B0493
:101210009A4201D3012310E00A4B7A68013A5A60DE
:1012200001235B4203211800FFF77CFF054B0022DE
:101230009A60044B07221A6000231800BD4602B0D2
:1012400080BDC04610E000E080B584B000AFB9605A
:101250007A600F217B18021C1A70BA687B181B7801
:101260005BB211001800FFF75DFFC046BD4604B039
:1012700080BD80B582B000AF0200FB1D1A70FB1D5F
:101280001B785BB21800FFF733FFC046BD4602B0C3
:1012900080BD80B582B000AF78607B681800FFF732
:1012A000AFFF03001800BD4602B080BD80B584B01A
:1012B00000AF78600023FB607B68002B01D1012325
:1012C00036E07B682122022199547B681B681B68E9
:1012D000FB60FB68184A1340FB607B685A687B68B8
:1012E0009B681A437B68DB681A437B681B691A4357
:1012F0007B685B691A437B689B691A437B68DB697F
:101300001343FA681343FB607B681B68FA681A6032
:101310007B68180000F0CEF97B6800229A637B6836
:101320002122012199547B68202200219954002315
:101330001800BD4604B080BD0FC0FFFF80B586B069
:1013400000AFF860B9607A603B601723FB18002299
:101350001A70FB6820229B5C012B01D102234FE015
:10136000FB68202201219954FB6821229B5CDBB29F
:10137000012B3AD1FB68212202219954FB680022FB
:101380009A63FB681B681A68FB681B6801218A4323
:101390001A603B687A68B968F86800F05EF9FB6823
:1013A000DB6A002B08D0FB681B681A68FB681B68A7
:1013B0000E210A431A600FE0FB681B681A68FB687D
:1013C0001B680A210A431A60FB681B681A68FB68DD
:1013D0001B6804218A431A60FB681B681A68FB6853
:1013E0001B6801210A431A6007E0FB6820220021E4
:1013F00099541723FB1802221A701723FB181B7825
:101400001800BD4606B080BD80B582B000AF7860E0
:101410007B6821229B5CDBB2022B08D07B68042214
:101420009A637B68202200219954012320E07B6885
:101430001B681A687B681B680E218A431A607B68E8
:101440001B681A687B681B6801218A431A607B68E5
:101450001A6C7B68DB6B012191400A005A607B6843
:101460002122012199547B682022002199540023D4
:101470001800BD4602B080BD80B584B000AF786072
:101480000F217B1800221A707B6821229B5CDBB243
:10149000022B06D07B6804229A637B1801221A7003
:1014A00028E07B681B681A687B681B680E218A43EA
:1014B0001A607B681B681A687B681B6801218A4375
:1014C0001A607B681A6C7B68DB6B012191400A0013
:1014D0005A607B682122012199547B6820220021D7
:1014E00099547B685B6B002B04D07B685B6B7A68DC
:1014F000100098470F23FB181B781800BD4604B056
:1015000080BD80B584B000AF78607B68DB6B1B6802
:10151000FB607B681B681B68BB607B681B6C0422DC
:101520009A401300FA68134024D0BB680422134089
:1015300020D07B681B681B682022134007D17B6882
:101540001B681A687B681B6804218A431A607B68E1
:101550001A6C7B68DB6B042191400A005A607B683F
:10156000DB6A002B00D16AE07B68DB6A7A681000D6
:10157000984764E07B681B6C02229A401300FA686B
:1015800013402BD0BB680222134027D07B681B6816
:101590001B68202213400BD17B681B681A687B688C
:1015A0001B680A218A431A607B6821220121995411
:1015B0007B681A6C7B68DB6B022191400A005A60E1
:1015C0007B682022002199547B689B6A002B36D0CF
:1015D0007B689B6A7A681000984730E07B681B6CD8
:1015E00008229A401300FA68134028D0BB680822EA
:1015F000134024D07B681B681A687B681B680E2127
:101600008A431A607B681A6C7B68DB6B012191400E
:101610000A005A607B6801229A637B6821220121BB
:1016200099547B682022002199547B681B6B002B06
:1016300005D07B681B6B7A6810009847FFE7C046AF
:10164000BD4604B080BD80B582B000AF78607B68D5
:101650009B6B1800BD4602B080BD80B584B000AF62
:10166000F860B9607A603B60FB681A6CFB68DB6B02
:10167000012191400A005A60FB681B683A685A6071
:10168000FB685B68102B08D1FB681B687A689A605E
:10169000FB681B68BA68DA6007E0FB681B68BA6819
:1016A0009A60FB681B687A68DA60C046BD4604B081
:1016B00080BD000080B582B000AF78607B681B6899
:1016C000084A9446634414211800FEF71DFD0300E8
:1016D0009A007B681A647B68034ADA63C046BD4699
:1016E00002B080BDF8FFFDBF0000024080B586B0AB
:1016F00000AF7860396000237B614FE13B681B6875
:1017000001217A6991400A001340FB60FB68002BBD
:1017100000D140E13B685B6803221340012B05D0F8
:101720003B685B6803221340022B30D17B689B68C7
:101730003B617B695B0003229A401300DA433B69FB
:1017400013403B613B68DA687B695B009A40130099
:101750003A6913433B617B683A699A607B685B68CE
:101760003B6101227B699A401300DA433B691340D5
:101770003B613B685B681B0901221A407B699A4008
:1017800013003A6913433B617B683A695A603B68CE
:101790005B6803221340032B17D07B68DB683B6137
:1017A0007B695B0003229A401300DA433B691340D4
:1017B0003B613B689A687B695B009A4013003A6919
:1017C00013433B617B683A69DA603B685B680322DC
:1017D0001340022B23D17B69DA087B680832920020
:1017E000D3583B617B69072213409B000F229A402C
:1017F0001300DA433B6913403B613B681A697B691C
:1018000007210B409B009A4013003A6913433B6148
:101810007B69DA087B68083292003969D1507B68AD
:101820001B683B617B695B0003229A401300DA432B
:101830003B6913403B613B685B6803221A407B694C
:101840005B009A4013003A6913433B617B683A6935
:101850001A603B685A68C0239B02134000D19AE08B
:10186000544B9A69534B01210A439A61514B9B692E
:1018700001221340BB60BB684F4A7B699B0802335F
:101880009B009B583B617B69032213409B000F2206
:101890009A401300DA433B6913403B617A68902316
:1018A000DB059A4213D07B68444A93420DD07B6893
:1018B000434A934207D07B68424A934201D10323B3
:1018C00006E0052304E0022302E0012300E00023F8
:1018D0007A6903210A40920093403A6913433B61BD
:1018E00035497B699B0802339B003A695A50364B55
:1018F0009B683B61FB68DA433B6913403B613B6893
:101900005A6880235B03134003D03A69FB68134392
:101910003B612D4B3A699A602B4BDB683B61FB685E
:10192000DA433B6913403B613B685A6880239B0361
:10193000134003D03A69FB6813433B61224B3A6979
:10194000DA60214B5B683B61FB68DA433B6913401B
:101950003B613B685A6880239B02134003D03A697D
:10196000FB6813433B61184B3A695A60164B1B687E
:101970003B61FB68DA433B6913403B613B685A6853
:1019800080235B02134003D03A69FB6813433B6139
:101990000D4B3A691A607B6901337B613B681A68B9
:1019A0007B69DA40131E00D0A8E6C046C046BD469B
:1019B00006B080BD00100240000001400004004855
:1019C00000080048000C00480004014080B588B0C1
:1019D00000AF78607B68002B01D1012301E37B68B5
:1019E0001B680122134000D18DE0C34B5B680C22C1
:1019F0001340042B0ED0C04B5B680C221340082B05
:101A000016D1BD4B5A6880235B021A4080235B02CB
:101A10009A420DD1B84B1A6880239B02134000D123
:101A200070E07B685B68002B00D06BE00123D8E29C
:101A30007B685B68012B07D1AF4B1A68AE4B8021E6
:101A400049020A431A602FE07B685B68002B0CD1C7
:101A5000A94B1A68A84BA9490A401A60A64B1A68F4
:101A6000A54BA7490A401A601EE07B685B68052BFE
:101A70000ED1A14B1A68A04B8021C9020A431A60FB
:101A80009D4B1A689C4B802149020A431A600BE067
:101A9000994B1A68984B99490A401A60964B1A68F4
:101AA000954B97490A401A607B685B68002B14D0FD
:101AB000FFF7F0FA0300BB6108E0FFF7EBFA020062
:101AC000BB69D31A642B01D903238AE28A4B1A68B3
:101AD00080239B021340F0D015E0FFF7DBFA0300F0
:101AE000BB6108E0FFF7D6FA0200BB69D31A642B8A
:101AF00001D9032375E2804B1A6880239B021340AF
:101B0000F0D100E0C0467B681B680222134000D180
:101B100069E0794B5B680C2213400BD0764B5B6815
:101B20000C221340082B1CD1734B5A6880235B0294
:101B3000134016D1704B1B680222134005D07B68FE
:101B4000DB68012B01D001234BE26B4B1B68F822B1
:101B5000934319007B681B69DA00674B0A431A60DC
:101B600041E07B68DB68002B24D0634B1A68624B32
:101B700001210A431A60FFF78DFA0300BB6108E0F8
:101B8000FFF788FA0200BB69D31A022B01D903239D
:101B900027E2594B1B6802221340F1D0564B1B68B9
:101BA000F822934319007B681B69DA00524B0A4301
:101BB0001A6018E0504B1A684F4B01218A431A6093
:101BC000FFF768FA0300BB6108E0FFF763FA020061
:101BD000BB69D31A022B01D9032302E2464B1B68CF
:101BE00002221340F1D17B681B680822134036D0D3
:101BF0007B68DB69002B19D03F4B5A6A3E4B0121B1
:101C00000A435A62FFF746FA0300BB6108E0FFF798
:101C100041FA0200BB69D31A022B01D90323E0E188
:101C2000354B5B6A02221340F1D018E0324B5A6AFE
:101C3000314B01218A435A62FFF72CFA0300BB6142
:101C400008E0FFF727FA0200BB69D31A022B01D97B
:101C50000323C6E1284B5B6A02221340F1D17B6863
:101C60001B680422134000D1B4E01F203B1800225F
:101C70001A70214BDA6980235B05134010D11E4B8B
:101C8000DA691D4B802149050A43DA611A4BDA698A
:101C900080235B051340FB60FB683B1801221A7030
:101CA000184B1A6880235B0013401AD1154B1A6831
:101CB000144B802149000A431A60FFF7EBF9030037
:101CC000BB6108E0FFF7E6F90200BB69D31A642B99
:101CD00001D9032385E10B4B1A6880235B00134075
:101CE000F0D07B689B68012B0ED1034B1A6A024B24
:101CF00001210A431A6235E000100240FFFFFEFF97
:101D0000FFFFFBFF007000407B689B68002B0CD13D
:101D1000B64B1A6AB54B01218A431A62B34B1A6A51
:101D2000B24B04218A431A621CE07B689B68052B36
:101D30000CD1AE4B1A6AAD4B04210A431A62AB4B6D
:101D40001A6AAA4B01210A431A620BE0A74B1A6ACE
:101D5000A64B01218A431A62A44B1A6AA34B0421A1
:101D60008A431A627B689B68002B14D0FFF792F9B4
:101D70000300BB6109E0FFF78DF90200BB69D31ACC
:101D80009B4A934201D903232BE1984B1B6A022201
:101D90001340F0D013E0FFF77DF90300BB6109E0C9
:101DA000FFF778F90200BB69D31A914A934201D92F
:101DB000032316E18D4B1B6A02221340F0D11F232F
:101DC000FB181B78012B05D1884BDA69874B8949B1
:101DD0000A40DA617B681B681022134063D07B687D
:101DE0005B69012B2AD1814B5A6B804B04210A433A
:101DF0005A637E4B5A6B7D4B01210A435A63FFF7AE
:101E000049F90300BB6108E0FFF744F90200BB6930
:101E1000D31A022B01D90323E3E0744B5B6B02223C
:101E20001340F1D0714B5B6BF822934319007B6830
:101E30009B69DA006D4B0A435A6334E07B685B6947
:101E4000053311D1694B5A6B684B04218A435A639D
:101E5000664B5B6BF822934319007B689B69DA0041
:101E6000624B0A435A631EE0604B5A6B5F4B04217E
:101E70000A435A635D4B5A6B5C4B01218A435A6398
:101E8000FFF708F90300BB6108E0FFF703F9020060
:101E9000BB69D31A022B01D90323A2E0534B5B6B1E
:101EA00002221340F1D17B681B6A002B00D197E01E
:101EB0004E4B5B680C221340082B00D16BE07B6813
:101EC0001B6A022B4CD1494B1A68484B4A490A40BD
:101ED0001A60FFF7DFF80300BB6108E0FFF7DAF8EC
:101EE0000200BB69D31A022B01D9032379E03F4BCF
:101EF0001A6880239B041340F0D13C4BDB6A0F220D
:101F0000934319007B68DA6A384B0A43DA62374B2D
:101F10005B683A4A134019007B689A6A7B685B6A7F
:101F20001A43324B0A435A60304B1A682F4B8021B8
:101F300049040A431A60FFF7ADF80300BB6108E0EB
:101F4000FFF7A8F80200BB69D31A022B01D90323BB
:101F500047E0264B1A6880239B041340F0D03FE0F3
:101F6000224B1A68214B24490A401A60FFF792F865
:101F70000300BB6108E0FFF78DF80200BB69D31ACC
:101F8000022B01D903232CE0184B1A6880239B04F1
:101F90001340F0D124E07B681B6A012B01D101239F
:101FA0001FE0124B5B687B61104BDB6A3B617A6917
:101FB00080235B021A407B685B6A9A420ED13B69C0
:101FC0000F221A407B68DB6A9A4207D17A69F023B4
:101FD0009B031A407B689B6A9A4201D0012300E070
:101FE00000231800BD4608B080BDC0460010024066
:101FF00088130000FFFFFFEFFFFFFFFEFFFFC2FFA0
:1020000080B584B000AF786039607B68002B01D167
:102010000123B3E05B4B1B68012213403A689A42EC
:1020200011D9584B1B68012293431900554B3A684C
:102030000A431A60534B1B68012213403A689A42C4
:1020400001D001239AE07B681B680222134015D05F
:102050007B681B680422134006D04B4B5A684A4BDE
:10206000E021C9000A435A60474B5B68F022934362
:1020700019007B689A68444B0A435A607B681B6866
:102080000122134040D07B685B68012B07D13E4B97
:102090001A6880239B02134014D101236EE07B68F1
:1020A0005B68022B07D1384B1A6880239B041340CE
:1020B00008D1012362E0344B1B680222134001D196
:1020C00001235BE0304B5B680322934319007B687C
:1020D0005A682D4B0A435A60FEF7DCFF0300FB6091
:1020E00009E0FEF7D7FF0200FB68D31A274A9342A4
:1020F00001D9032342E0244B5B680C221A407B6821
:102100005B689B009A42ECD11E4B1B680122134076
:102110003A689A4211D21B4B1B6801229343190063
:10212000184B3A680A431A60164B1B680122134089
:102130003A689A4201D0012320E07B681B680422A0
:10214000134009D0104B5B68114A134019007B689B
:10215000DA680D4B0A435A6000F020F801000A4B80
:102160005B681B090F2213400A4AD35C0A00DA405D
:10217000094B1A600320FEF747FF00231800BD46F5
:1021800004B080BD0020024000100240881300000F
:10219000FFF8FFFFF44000080800002080B586B07B
:1021A00000AF0023FB600023BB6000237B610023A2
:1021B0007B6000233B61204B5B68FB60FB680C226B
:1021C0001340042B02D0082B03D02CE01B4B3B61A7
:1021D0002CE0FB689B0C0F221340194AD35C7B60F8
:1021E000154BDB6A0F221340164AD35CBB60FA68BA
:1021F00080235B02134009D0B9681048FDF784FFC3
:1022000003001A007B6853437B6109E079680A0088
:102210005201521A93019B1ADB005B181B027B616F
:102220007B693B6102E0054B3B61C0463B6918009E
:10223000BD4606B080BDC0460010024000127A00C4
:102240000C4100081C41000880B500AF024B1B6820
:102250001800BD4680BDC0460800002080B500AF14
:10226000FFF7F2FF0100064B5B681B0A07221340D1
:10227000044AD35CD9400B001800BD4680BDC0465F
:10228000001002400441000880B582B000AF7860C1
:102290007B68002B01D1012342E07B683D229B5CDF
:1022A000DBB2002B07D17B683C22002199547B686C
:1022B0001800FEF7CBFC7B683D22022199547B6815
:1022C0001A687B6804331900100000F0EDF97B6890
:1022D0004622012199547B683E22012199547B6852
:1022E0003F22012199547B684022012199547B6847
:1022F0004122012199547B684222012199547B6833
:102300004322012199547B684422012199547B681E
:102310004522012199547B683D22012199540023D3
:102320001800BD4602B080BD80B584B000AF7860B3
:1023300039600F23FB1800221A703B68002B08D16C
:102340007B683E229B5CDBB2013B5A1E9341DBB2B1
:102350001FE03B68042B08D17B683F229B5CDBB20B
:10236000013B5A1E9341DBB213E03B68082B08D1B6
:102370007B6840229B5CDBB2013B5A1E9341DBB27F
:1023800007E07B6841229B5CDBB2013B5A1E934114
:10239000DBB2002B01D00123B1E03B68002B04D15C
:1023A0007B683E220221995413E03B68042B04D140
:1023B0007B683F22022199540BE03B68082B04D133
:1023C0007B6840220221995403E07B68412202216C
:1023D00099543B680C2B2AD03B680C2B30D83B68B7
:1023E000082B1BD03B68082B2AD83B68002B03D056
:1023F0003B68042B09D023E07B681B68DA687B68A4
:102400001B6802210A43DA601FE07B681B68DA68F8
:102410007B681B6804210A43DA6016E07B681B684E
:10242000DA687B681B6808210A43DA600DE07B6884
:102430001B68DA687B681B6810210A43DA6004E0D5
:102440000F23FB1801221A70C0460F23FB181B78BC
:10245000002B51D17B681B6839680122180000F0FD
:1024600095FB7B681B68284A93420ED07B681B68EB
:10247000264A934209D07B681B68254A934204D0C0
:102480007B681B68234A934201D1012300E00023AB
:10249000002B08D07B681B685A6C7B681B68802106
:1024A00009020A435A647B681B68174A934209D0A1
:1024B0007B681B68184A934204D07B681B68134AE8
:1024C000934211D17B681B689B6807221340BB6055
:1024D000BB68062B10D07B681B681A687B681B687A
:1024E00001210A431A6007E07B681B681A687B6851
:1024F0001B6801210A431A600F23FB181B78180080
:10250000BD4604B080BDC046002C014000400140E3
:1025100000440140004801400004004080B586B0FE
:1025200000AFF860B9607A601723FB1800221A70B8
:10253000FB683C229B5C012B01D10223ADE0FB68D0
:102540003C22012199547B680C2B00D176E07B68FA
:102550000C2B00D995E07B68082B4ED07B68082BAC
:1025600000D98EE07B68002B03D07B68042B21D040
:1025700087E0FB681B68BA681100180000F00AF9D0
:10258000FB681B689A69FB681B6808210A439A610B
:10259000FB681B689A69FB681B6804218A439A617F
:1025A000FB681B689969BB681A69FB681B680A436A
:1025B0009A616BE0FB681B68BA681100180000F0B4
:1025C00071F9FB681B689A69FB681B688021090127
:1025D0000A439A61FB681B689A69FB681B6831496A
:1025E0000A409A61FB681B689969BB681B691A02FB
:1025F000FB681B680A439A6148E0FB681B68BA687D
:102600001100180000F0D2F9FB681B68DA69FB685A
:102610001B6808210A43DA61FB681B68DA69FB68FA
:102620001B6804218A43DA61FB681B68D969BB68AF
:102630001A69FB681B680A43DA6127E0FB681B68BC
:10264000BA681100180000F037FAFB681B68DA69F5
:10265000FB681B68802109010A43DA61FB681B687B
:10266000DA69FB681B680F490A40DA61FB681B687E
:10267000D969BB681B691A02FB681B680A43DA61E7
:1026800004E01723FB1801221A70C046FB683C22A5
:10269000002199541723FB181B781800BD4606B07B
:1026A00080BDC046FFFBFFFF80B584B000AF7860FF
:1026B00039607B681B68FB607B682F4A934203D0BC
:1026C0007B682E4A934208D1FB6870229343FB60DB
:1026D0003B685B68FA681343FB607B68264A934259
:1026E00013D07B68254A93420FD07B68244A9342DB
:1026F0000BD07B68234A934207D07B68224A9342DF
:1027000003D07B68214A934208D1FB68204A1340DA
:10271000FB603B68DB68FA681343FB60FB68802260
:1027200093431A003B685B691343FB607B68FA685C
:102730001A603B689A687B68DA623B681A687B6853
:102740009A627B680C4A93420BD07B680D4A934295
:1027500007D07B680C4A934203D07B680B4A9342B4
:1027600003D13B681A697B681A637B6801225A614E
:10277000C046BD4604B080BD002C014000040040AE
:10278000002000400040014000440140004801405A
:10279000FFFCFFFF80B586B000AF786039607B68D2
:1027A0001B6A012293431A007B681A627B681B6ACA
:1027B0007B617B685B683B617B689B69FB60FB6856
:1027C00070229343FB60FB6803229343FB603B68EA
:1027D0001B68FA681343FB607B69022293437B61A9
:1027E0003B689B687A6913437B617B68274A934205
:1027F0000BD07B68264A934207D07B68254A9342D8
:1028000003D07B68244A93420CD17B69082293430E
:102810007B613B68DB687A6913437B617B690422D7
:1028200093437B617B68194A93420BD07B68184ABB
:10283000934207D07B68174A934203D07B68164ABD
:10284000934211D13B69154A13403B613B69144ADD
:1028500013403B613B685B693A6913433B613B68EA
:102860009B693A6913433B617B683A695A607B68AC
:10287000FA689A613B685A687B685A637B687A6930
:102880001A62C046BD4606B080BDC046002C01405D
:10289000004001400044014000480140FFFEFFFFAE
:1028A000FFFDFFFF80B586B000AF786039607B68C0
:1028B0001B6A102293431A007B681A627B681B6AAA
:1028C0007B617B685B683B617B689B69FB60FB6845
:1028D0002E4A1340FB60FB682D4A1340FB603B68A7
:1028E0001B681B02FA681343FB607B692022934339
:1028F0007B613B689B681B017A6913437B617B6842
:10290000244A93420DD17B69802293437B613B68CB
:10291000DB681B017A6913437B617B694022934327
:102920007B617B681B4A93420BD07B681A4A9342B7
:1029300007D07B68194A934203D07B68184A9342B8
:1029400013D13B69174A13403B613B69164A134058
:102950003B613B685B699B003A6913433B613B68A1
:102960009B699B003A6913433B617B683A695A60F3
:102970007B68FA689A613B685A687B689A637B68EF
:102980007A691A62C046BD4606B080BDFF8FFFFF60
:10299000FFFCFFFF002C01400040014000440140CB
:1029A00000480140FFFBFFFFFFF7FFFF80B586B047
:1029B00000AF786039607B681B6A354A1A407B68D3
:1029C0001A627B681B6A7B617B685B683B617B6822
:1029D000DB69FB60FB6870229343FB60FB680322AA
:1029E0009343FB603B681B68FA681343FB607B6999
:1029F000284A13407B613B689B681B027A6913433A
:102A00007B617B68244A93420DD17B69234A134042
:102A10007B613B68DB681B027A6913437B617B69DE
:102A20001F4A13407B617B681B4A93420BD07B6833
:102A30001C4A934207D07B681B4A934203D07B68B1
:102A40001A4A934213D13B69194A13403B613B69CF
:102A5000184A13403B613B685B691B013A691343A9
:102A60003B613B689B691B013A6913433B617B688F
:102A70003A695A607B68FA68DA613B685A687B6831
:102A8000DA637B687A691A62C046BD4606B080BDCB
:102A9000FFFEFFFFFFFDFFFF002C0140FFF7FFFFE0
:102AA000FFFBFFFF0040014000440140004801409F
:102AB000FFEFFFFFFFDFFFFF80B586B000AF78605C
:102AC00039607B681B6A284A1A407B681A627B68F7
:102AD0001B6A3B617B685B687B617B68DB69FB60D1
:102AE000FB68224A1340FB60FB68214A1340FB60ED
:102AF0003B681B681B02FA681343FB603B691D4A75
:102B000013403B613B689B681B033A6913433B617D
:102B10007B68194A93420BD07B68184A934207D0CE
:102B20007B68174A934203D07B68164A934209D1C7
:102B30007B69154A13407B613B685B699B017A693D
:102B400013437B617B687A695A607B68FA68DA6153
:102B50003B685A687B681A647B683A691A62C046A7
:102B6000BD4606B080BDC046FFEFFFFFFF8FFFFFF1
:102B7000FFFCFFFFFFDFFFFF002C01400040014092
:102B80000044014000480140FFBFFFFF80B586B010
:102B900000AFF860B9607A60BB681F221340012261
:102BA0009A4013007B61FB681B6A7A69D2431A4022
:102BB000FB681A62FB681A6ABB681F210B407968C0
:102BC00099400B001A43FB681A62C046BD4606B026
:102BD00080BD000080B584B000AF786039607B684C
:102BE0003C229B5C012B01D1022341E07B683C220B
:102BF000012199547B683D22022199547B681B680E
:102C00005B68FB607B681B689B68BB60FB6870222D
:102C10009343FB603B681B68FA681343FB607B6867
:102C20001B68FA685A607B681B68134A934209D094
:102C30007B681B68114A934204D07B681B68104A6A
:102C400093420CD1BB6880229343BB603B685B68B6
:102C5000BA681343BB607B681B68BA689A607B687C
:102C60003D22012199547B683C2200219954002384
:102C70001800BD4604B080BD002C01400004004097
:102C80000040014080B584B000AF78603960002317
:102C9000FB607B683C229B5C012B01D102233EE060
:102CA0007B683C2201219954FB68FF2293431A0060
:102CB0003B68DB681343FB60FB681B4A1A403B68B8
:102CC0009B681343FB60FB68184A1A403B685B68CB
:102CD0001343FB60FB68164A1A403B681B681343AA
:102CE000FB60FB68134A1A403B681B691343FB6097
:102CF000FB68114A1A403B685B691343FB60FB6841
:102D00000E4A1A403B68DB691343FB607B681B6813
:102D1000FA685A647B683C22002199540023180009
:102D2000BD4604B080BDC046FFFCFFFFFFFBFFFFB8
:102D3000FFF7FFFFFFEFFFFFFFDFFFFFFFBFFFFF1B
:102D400080B582B000AF78607B68002B01D1012391
:102D500044E07B68DB6F002B07D17B687822002181
:102D600099547B681800FEF767F87B682422DA67BD
:102D70007B681B681A687B681B6801218A431A609C
:102D80007B68180000F0ACFB0300012B01D101238C
:102D900024E07B685B6A002B03D07B68180000F09E
:102DA000DFFC7B681B685A687B681B680D490A401A
:102DB0005A607B681B689A687B681B6808218A4395
:102DC0009A607B681B681A687B681B6801210A434C
:102DD0001A607B68180000F077FD03001800BD46FC
:102DE00002B080BDFFF7FFFF80B58CB000AF786008
:102DF0007B68DB6FFB627B6880229B58BB627B68D1
:102E00001B689B6880221340802B38D1FB6A212BE2
:102E100035D1EFF310837B617B697B620123BB615A
:102E2000BB6983F31088C0467B681B689A687B681F
:102E30001B6880218A439A607B6AFB61FB6983F38C
:102E40001088C0467B681B6F002B14D07B681B6FFB
:102E50001800FEF7D9FA031E0DD07B681B6F18000F
:102E6000FEF7F1FB0300202B05D17B6884221021A3
:102E70009950032344E07B68180000F0D7FE7B687C
:102E80001B689B6840221340402B38D1BB6A222B21
:102E900035D1EFF31083BB60BB683B620123FB605D
:102EA000FB6883F31088C0467B681B689A687B6860
:102EB0001B6840218A439A603B6A3B613B6983F30C
:102EC0001088C0467B685B6F002B14D07B685B6FFB
:102ED0001800FEF799FA031E0DD07B685B6F18008F
:102EE000FEF7B1FB0300202B05D17B688422102163
:102EF0009950032304E07B68180000F0BBFE002318
:102F00001800BD460CB080BD90B5ABB000AF786086
:102F10007B681B68DB69A422B9180B607B681B689F
:102F20001B68A02039180B607B681B689B689C217C
:102F300079180B601100BB181B68994A134098223E
:102F4000BC182360BB181B68002B14D17B181B68AE
:102F5000202213400FD03B181B68202213400AD0B8
:102F60007B689B6E002B00D186E27B689B6E7A6843
:102F70001000984780E29823FB181B68002B00D1B3
:102F800014E19C23FB181B680122134006D1A023E7
:102F9000FB181B68834A134000D107E1A423FB18E8
:102FA0001B680122134012D0A023FB181A6880234B
:102FB0005B0013400BD07B681B6801221A627B68A0
:102FC00084229B5801221A437B6884215A50A423EF
:102FD000FB181B680222134011D09C23FB181B68AE
:102FE000012213400BD07B681B6802221A627B68A7
:102FF00084229B5804221A437B6884215A50A423BC
:10300000FB181B680422134011D09C23FB181B687B
:10301000012213400BD07B681B6804221A627B6874
:1030200084229B5802221A437B6884215A50A4238D
:10303000FB181B680822134017D0A023FB181B683D
:103040002022134005D19C23FB181B68012213404A
:103050000BD07B681B6808221A627B6884229B580D
:1030600008221A437B6884215A50A423FB181A684B
:1030700080231B01134013D0A023FB181A68802360
:10308000DB0413400CD07B681B68802212011A629B
:103090007B6884229B5820221A437B6884215A50E3
:1030A0007B6884229B58002B00D1E7E1A423FB1806
:1030B0001B68202213400ED0A023FB181B6820227F
:1030C000134008D07B689B6E002B04D07B689B6EFE
:1030D0007A68100098477B6884229B5894217A185C
:1030E00013607B681B689B6840221340402B04D010
:1030F0007B181B682822134047D07B68180000F01B
:10310000B9FD7B681B689B6840221340402B37D178
:10311000EFF310833B663B6E90203A181360012357
:103120007B667B6E83F31088C0467B681B689A6859
:103130007B681B6840218A439A603B181B68BB660A
:10314000BB6E83F31088C0467B685B6F002B12D088
:103150007B685B6F144A5A637B685B6F1800FEF7ED
:103160008BF9031E1AD07B685B6F5A6B7B685B6FB1
:103170001800904712E07B681800FDF7DDFA0DE0BB
:103180007B681800FDF7D8FA08E07B681800FDF7A7
:10319000D3FA7B688422002199506FE1C0466DE12B
:1031A0000F080000200100042F3F00087B681B6E01
:1031B000012B00D039E1A423FB181B681022134017
:1031C00000D132E1A023FB181B681022134000D16C
:1031D0002BE17B681B6810221A627B681B689B6866
:1031E00040221340402B00D09FE07B685B6F1B6840
:1031F0005A687E217B181A807B181B88002B00D10F
:103200003EE17B6858229B5A7A1812889A4200D372
:1032100036E17B687A185A2112885A527B685B6FB4
:103220009B69202B6FD0EFF310833B633B6BBB6735
:1032300001237B637B6B83F31088C0467B681B682C
:103240001A687B681B6892490A401A60BB6FBB63AF
:10325000BB6B83F31088C046EFF31083FB63FB6BFB
:103260007B6701233B643B6C83F31088C0467B681B
:103270001B689A687B681B6801218A439A607B6F90
:103280007B647B6C83F31088C046EFF31083BB64D0
:10329000BB6C3B670123FB64FB6C83F31088C04667
:1032A0007B681B689A687B681B6840218A439A6028
:1032B0003B6F3B653B6D83F31088C0467B68802283
:1032C000202199507B6800221A66EFF310837B65FA
:1032D0007B6DFB660123BB65BB6D83F31088C04625
:1032E0007B681B681A687B681B6810218A431A6018
:1032F000FB6EFB65FB6D83F31088C0467B685B6FDC
:103300001800FEF781F87B6802225A667B68582213
:103310009A5A7B685A215B5A9BB2D31A9AB27B683D
:1033200011001800FDF7E0F9AAE07B685822995ACD
:103330007B685A229B5A9AB28E203B188A1A1A80AE
:103340007B685A229B5A9BB2002B00D19AE03B1813
:103350001B88002B00D195E0EFF31083FB60FB6826
:1033600088243A19136001233B613B6983F3108879
:10337000C0467B681B681A687B681B6845490A4021
:103380001A603B191B687B617B6983F31088C04618
:10339000EFF31083BB61BB6984243A1913600123E6
:1033A000FB61FB6983F31088C0467B681B689A68E1
:1033B0007B681B6801218A439A603B191B683B624A
:1033C0003B6A83F31088C0467B6880222021995095
:1033D0007B6800221A667B6800229A66EFF31083EE
:1033E0007B627B6A80243A1913600123BB62BB6A4B
:1033F00083F31088C0467B681B681A687B681B686B
:1034000010218A431A603B191B68FB62FB6A83F335
:103410001088C0467B6802225A663B181A887B686F
:1034200011001800FDF760F92CE0A423FB181B68BD
:10343000802213400FD0A023FB181B68802213406A
:1034400009D07B68DB6E002B1ED07B68DB6E7A6850
:103450001000984718E0A423FB181B684022134073
:1034600013D0A023FB181B68402213400DD07B68AB
:10347000180000F073FD08E0C04606E0C04604E016
:10348000C04602E0C04600E0C046BD462BB090BD3D
:10349000FFFEFFFFDFFEFFFF80B582B000AF786068
:1034A000C046BD4602B080BD80B582B000AF786036
:1034B000C046BD4602B080BD80B582B000AF786026
:1034C000C046BD4602B080BD80B582B000AF786016
:1034D0007B6884229B581800BD4602B080BD000066
:1034E00080B588B000AF78601E23FB1800221A70E8
:1034F0007B689A687B681B691A437B685B691A431F
:103500007B68DB6913437B617B681B681B688D4AA2
:10351000134019007B681B687A690A431A607B684C
:103520001B685B68884A134019007B68DA687B680F
:103530001B680A435A607B689B697B617B681B6AD6
:103540007A6913437B617B681B689B687F4A1340E1
:1035500019007B681B687A690A439A607B681B685C
:103560007B4A934227D17B4B1B6B03221340032BD7
:103570000DD01BD8022B14D018D8002B02D0012B51
:103580000AD013E01F23FB1800221A7021E01F232A
:10359000FB1802221A701CE01F23FB1804221A7069
:1035A00017E01F23FB1808221A7012E01F23FB18D4
:1035B00010221A700DE07B681B68674A934204D1A1
:1035C0001F23FB1800221A7003E01F23FB18102290
:1035D0001A707B68DA6980231B029A425CD11F2330
:1035E000FB181B78082B15D018DC042B0DD015DC2C
:1035F000002B02D0022B05D010E0FEF72FFE0300B7
:10360000BB6112E0554BBB610FE0FEF7C7FD030045
:10361000BB610AE080231B02BB6106E00023BB61A3
:103620001E23FB1801221A70C046BB69002B00D173
:103630007AE0BB695A007B685B685B08D2187B68DC
:103640005B6819001000FCF75FFD03003B613B69FC
:103650000F2B1CD93A6980235B029A4217D23B692F
:103660009AB20E203B180F218A431A803B695B08EF
:103670009BB20722134099B23B183A1812880A43AA
:103680001A807B681B683A181288DA604CE01E23A7
:10369000FB1801221A7047E01F23FB181B78082B28
:1036A00015D018DC042B0DD015DC002B02D0022B1A
:1036B00005D010E0FEF7D2FD0300BB6112E0274BFE
:1036C000BB610FE0FEF76AFD0300BB610AE08023E7
:1036D0001B02BB6106E00023BB611E23FB18012215
:1036E0001A70C046BB69002B1ED07B685B685A0805
:1036F000BB69D2187B685B6819001000FCF704FDF9
:1037000003003B613B690F2B0AD93A6980235B02B6
:103710009A4205D23B699AB27B681B68DA6003E083
:103720001E23FB1801221A707B6800229A667B68B0
:103730000022DA661E23FB181B781800BD4608B06D
:1037400080BDC046F369FFFFFFCFFFFFFFF4FFFF1F
:1037500000380140001002400044004000127A008E
:1037600080B582B000AF78607B685B6A012213404D
:103770000BD07B681B685B684A4A134019007B6862
:103780009A6A7B681B680A435A607B685B6A0222FC
:1037900013400BD07B681B685B68434A13401900D9
:1037A0007B68DA6A7B681B680A435A607B685B6ADD
:1037B000042213400BD07B681B685B683B4A1340B4
:1037C00019007B681A6B7B681B680A435A607B6828
:1037D0005B6A082213400BD07B681B685B68344A25
:1037E000134019007B685A6B7B681B680A435A6058
:1037F0007B685B6A102213400BD07B681B689B6858
:103800002C4A134019007B689A6B7B681B680A433B
:103810009A607B685B6A202213400BD07B681B6830
:103820009B68254A134019007B68DA6B7B681B682C
:103830000A439A607B685B6A402213401DD07B6814
:103840001B685B681D4A134019007B681A6C7B6813
:103850001B680A435A607B681A6C80235B039A4298
:103860000BD17B681B685B68154A134019007B68A5
:103870005A6C7B681B680A435A607B685B6A8022CB
:1038800013400BD07B681B685B680E4A134019001D
:103890007B689A6C7B681B680A435A60C046BD46C9
:1038A00002B080BDFFFFFDFFFFFFFEFFFFFFFBFF3C
:1038B000FF7FFFFFFFEFFFFFFFDFFFFFFFFFEFFFD8
:1038C000FFFF9FFFFFFFF7FF80B592B002AF786068
:1038D0007B68842200219950FDF7DCFB0300FB6329
:1038E0007B681B681B6808221340082B2CD1FB6BDC
:1038F000802291037868464A0092002200F08CF8FA
:10390000031E21D0EFF310837B627B6ABB6301232C
:10391000BB62BB6A83F31088C0467B681B681A6869
:103920007B681B6880218A431A60BB6BFB62FB6A61
:1039300083F31088C0467B682022DA677B68782290
:103940000021995403235FE07B681B681B680422F5
:103950001340042B46D1FB6B8022D10378682C4A9C
:103960000092002200F058F8031E3BD0EFF31083C2
:10397000FB60FB687B6301233B613B6983F3108839
:10398000C0467B681B681A687B681B6821490A402F
:103990001A607B6B7B617B6983F31088C046EFF311
:1039A0001083BB61BB693B630123FB61FB6983F34C
:1039B0001088C0467B681B689A687B681B68012179
:1039C0008A439A603B6B3B623B6A83F31088C04634
:1039D0007B688022202199507B68782200219954AD
:1039E000032311E07B682022DA677B688022202194
:1039F00099507B6800221A667B6800225A667B68B1
:103A000078220021995400231800BD4610B080BDD3
:103A1000FFFFFF01DFFEFFFF80B584B000AFF8605D
:103A2000B9603B60FB1D1A704BE0BB69013348D0A5
:103A3000FDF730FB02003B68D31ABA699A4202D301
:103A4000BB69002B01D103234BE0FB681B681B689B
:103A50000422134035D0FB681B68DB690822134041
:103A6000082B11D1FB681B6808221A62FB6818003A
:103A700000F000F9FB68842208219950FB68782245
:103A80000021995401232CE0FB681B68DA6980232C
:103A90001B011A4080231B019A4212D1FB681B684C
:103AA000802212011A62FB68180000F0E3F8FB683C
:103AB000842220219950FB68782200219954032305
:103AC0000FE0FB681B68DB69BA681340BA68D31A59
:103AD0005A425341DBB21A00FB1D1B789A42A4D014
:103AE00000231800BD4604B080BD000080B590B032
:103AF00000AFF860B960BB1D1A80FB68BA685A65F0
:103B0000FB68BA1D582112885A52FB688422002192
:103B10009950FB68802222219950FB685B6F002B33
:103B200028D0FB685B6F3E4A9A62FB685B6F3D4A38
:103B3000DA62FB685B6F3C4A1A63FB685B6F0022CA
:103B40005A63FB68586FFB681B6824331900FB68D5
:103B50005B6D1A00BB1D1B88FDF7F0FB031E09D02F
:103B6000FB68842210219950FB6880222021995003
:103B7000012350E0FB681B69002B19D0EFF3108381
:103B8000BB62BB6AFB630123FB62FB6A83F31088A1
:103B9000C046FB681B681A68FB681B6880214900E7
:103BA0000A431A60FB6B3B633B6B83F31088C04690
:103BB000EFF310833B613B69BB6301237B617B694E
:103BC00083F31088C046FB681B689A68FB681B6813
:103BD00001210A439A60BB6BBB61BB6983F3108808
:103BE000C046EFF31083FB61FB697B6301233B62FB
:103BF0003B6A83F31088C046FB681B689A68FB68C1
:103C00001B6840210A439A607B6B7B627B6A83F36B
:103C10001088C04600231800BD4610B080BDC046C5
:103C20003D3D0008693E0008AB3E000880B586B007
:103C300000AF7860EFF31083BB60BB687B6101234A
:103C4000FB60FB6883F31088C0467B681B681A68BA
:103C50007B681B68C0218A431A607B693B613B69B2
:103C600083F31088C0467B682022DA67C046BD46D1
:103C700006B080BD80B58EB000AF7860EFF31083E2
:103C80007B617B697B630123BB61BB6983F3108824
:103C9000C0467B681B681A687B681B6826490A4017
:103CA0001A607B6BFB61FB6983F31088C046EFF3FE
:103CB00010833B623B6A3B6301237B627B6A83F335
:103CC0001088C0467B681B689A687B681B68012166
:103CD0008A439A603B6BBB62BB6A83F31088C04621
:103CE0007B681B6E012B18D1EFF31083BB60BB68A0
:103CF000FB620123FB60FB6883F31088C0467B688E
:103D00001B681A687B681B6810218A431A60FB6A6B
:103D10003B613B6983F31088C0467B688022202189
:103D200099507B6800221A667B6800229A66C0461A
:103D3000BD460EB080BDC046DFFEFFFF80B594B02B
:103D400000AF78607B685B6AFB647B689B69202BB3
:103D50006FD0FB6C5A2200219952EFF31083BB61A4
:103D6000BB69BB640123FB61FB6983F31088C04618
:103D7000FB6C1B681A68FB6C1B683A490A401A60A6
:103D8000BB6C3B623B6A83F31088C046EFF3108341
:103D90007B627B6A7B640123BB62BB6A83F310880E
:103DA000C046FB6C1B689A68FB6C1B6801218A4348
:103DB0009A607B6CFB62FB6A83F31088C046EFF36A
:103DC00010833B633B6B3B6401237B637B6B83F31F
:103DD0001088C046FB6C1B689A68FB6C1B6840210E
:103DE0008A439A603B6CBB63BB6B83F31088C0460D
:103DF000FB6C802220219950FB6C1B6E012B18D18B
:103E0000EFF31083FB60FB68FB6301233B613B69BD
:103E100083F31088C046FB6C1B681A68FB6C1B6838
:103E200010218A431A60FB6B7B617B6983F31088E6
:103E3000C046FB6C00225A66FB6C1B6E012B08D13E
:103E4000FB6C58229A5AFB6C11001800FCF74CFCD2
:103E500003E0FB6C1800FFF727FBC046BD4614B01B
:103E600080BDC046FFFEFFFF80B584B000AF786024
:103E70007B685B6AFB60FB6801225A66FB681B6E0D
:103E8000012B0AD1FB6858229B5A5B089AB2FB6847
:103E900011001800FCF728FC03E0FB681800FFF78E
:103EA0000BFBC046BD4604B080BD80B586B000AFF8
:103EB00078607B685B6A7B617B69DB6F3B617B69F8
:103EC00080229B58FB607B691B689B6880221340A3
:103ED000802B0AD13B69212B07D17B69522200211B
:103EE00099527B691800FFF7A1FE7B691B689B68EC
:103EF00040221340402B0AD1FB68222B07D17B695B
:103F00005A22002199527B691800FFF7B3FE7B69A2
:103F100084229B5810221A437B6984215A507B6962
:103F20001800FCF709FCC046BD4606B080BD80B550
:103F300084B000AF78607B685B6AFB60FB685A22E4
:103F400000219952FB68522200219952FB68180007
:103F5000FCF7F2FBC046BD4604B080BD80B586B01C
:103F600000AF7860EFF31083BB60BB687B61012317
:103F7000FB60FB6883F31088C0467B681B681A6887
:103F80007B681B6840218A431A607B693B613B69FF
:103F900083F31088C0467B682022DA677B680022A2
:103FA000DA667B681800FFF777FAC046BD4606B0B0
:103FB00080BDB0B58AB000AFF860B960BB1D1A8093
:103FC000FB6880229B58202B56D1BB68002B03D066
:103FD000BB1D1B88002B01D101234EE0FB689A68B2
:103FE00080235B019A4209D1FB681B69002B05D134
:103FF000BB680122134001D001233EE0FB6801228F
:104000001A66FB6800225A6627257C19BB1D1A8890
:10401000B968FB681800FFF769FD030023707B197E
:104020001B78002B24D1FB681B6E012B1CD1FB6875
:104030001B6810221A62EFF310837B617B693B627D
:104040000123BB61BB6983F31088C046FB681B6812
:104050001A68FB681B6810210A431A603B6AFB61FF
:10406000FB6983F3108803E02723FB1801221A70F1
:104070002723FB181B7800E002231800BD460AB076
:10408000B0BD03008218934200D17047197001330C
:10409000F9E7000070B500260C4C0D4D641BA41010
:1040A000A64209D1002600F019F80A4C0A4D641BFB
:1040B000A410A64205D170BDB300EB589847013655
:1040C000EEE7B300EB5898470136F2E72C410008C1
:1040D0002C410008304100082C410008F8B5C046CA
:1040E000F8BC08BC9E467047F8B5C046F8BC08BC92
:0440F0009E46704731
:1040F4000000000000000000010203040607080994
:104104000000000001020304020304050607080975
:104114000A0B0C0D0E0F101001020304050607080C
:08412400090A0B0C0D0E0F102F
:04412C00E90000089E
:04413000C1000008C2
:10413400969696969696000000127A000400000067
:044144000100000076
:0400000508000F8D53
:00000001FF
